{
  "contractName": "CopyrightRegistry",
  "abi": [
    {
      "inputs": [
        {
          "internalType": "string",
          "name": "",
          "type": "string"
        },
        {
          "internalType": "address",
          "name": "",
          "type": "address"
        }
      ],
      "name": "rights",
      "outputs": [
        {
          "internalType": "bool",
          "name": "",
          "type": "bool"
        }
      ],
      "stateMutability": "view",
      "type": "function"
    },
    {
      "inputs": [
        {
          "internalType": "string",
          "name": "",
          "type": "string"
        }
      ],
      "name": "works",
      "outputs": [
        {
          "internalType": "address",
          "name": "owner",
          "type": "address"
        },
        {
          "internalType": "string",
          "name": "title",
          "type": "string"
        },
        {
          "internalType": "string",
          "name": "description",
          "type": "string"
        }
      ],
      "stateMutability": "view",
      "type": "function"
    },
    {
      "inputs": [
        {
          "internalType": "string",
          "name": "_title",
          "type": "string"
        },
        {
          "internalType": "string",
          "name": "_description",
          "type": "string"
        }
      ],
      "name": "registerWork",
      "outputs": [],
      "stateMutability": "nonpayable",
      "type": "function"
    },
    {
      "inputs": [
        {
          "internalType": "string",
          "name": "_title",
          "type": "string"
        },
        {
          "internalType": "address",
          "name": "_user",
          "type": "address"
        }
      ],
      "name": "grantRights",
      "outputs": [],
      "stateMutability": "nonpayable",
      "type": "function"
    },
    {
      "inputs": [
        {
          "internalType": "string",
          "name": "_title",
          "type": "string"
        },
        {
          "internalType": "address",
          "name": "_user",
          "type": "address"
        }
      ],
      "name": "revokeRights",
      "outputs": [],
      "stateMutability": "nonpayable",
      "type": "function"
    }
  ],
  "bytecode": "0x608060405234801561001057600080fd5b50610f20806100206000396000f3fe608060405234801561001057600080fd5b50600436106100575760003560e01c80634cd5991f1461005c57806359bf909314610078578063837895a8146100a8578063a9da92cd146100c4578063b90f7c7e146100e0575b600080fd5b61007660048036038101906100719190610845565b610112565b005b610092600480360381019061008d9190610845565b610239565b60405161009f91906108bc565b60405180910390f35b6100c260048036038101906100bd91906108d7565b61027e565b005b6100de60048036038101906100d99190610845565b6103f7565b005b6100fa60048036038101906100f5919061094f565b61051d565b60405161010993929190610a26565b60405180910390f35b3373ffffffffffffffffffffffffffffffffffffffff166000836040516101399190610aa7565b908152602001604051809103902060000160009054906101000a900473ffffffffffffffffffffffffffffffffffffffff1673ffffffffffffffffffffffffffffffffffffffff16146101c1576040517f08c379a00000000000000000000000000000000000000000000000000000000081526004016101b890610b0a565b60405180910390fd5b60006001836040516101d39190610aa7565b908152602001604051809103902060008373ffffffffffffffffffffffffffffffffffffffff1673ffffffffffffffffffffffffffffffffffffffff16815260200190815260200160002060006101000a81548160ff0219169083151502179055505050565b6001828051602081018201805184825260208301602085012081835280955050505050506020528060005260406000206000915091509054906101000a900460ff1681565b600073ffffffffffffffffffffffffffffffffffffffff166000836040516102a69190610aa7565b908152602001604051809103902060000160009054906101000a900473ffffffffffffffffffffffffffffffffffffffff1673ffffffffffffffffffffffffffffffffffffffff161461032e576040517f08c379a000000000000000000000000000000000000000000000000000000000815260040161032590610b76565b60405180910390fd5b60405180606001604052803373ffffffffffffffffffffffffffffffffffffffff1681526020018381526020018281525060008360405161036f9190610aa7565b908152602001604051809103902060008201518160000160006101000a81548173ffffffffffffffffffffffffffffffffffffffff021916908373ffffffffffffffffffffffffffffffffffffffff16021790555060208201518160010190816103d99190610dac565b5060408201518160020190816103ef9190610dac565b509050505050565b3373ffffffffffffffffffffffffffffffffffffffff1660008360405161041e9190610aa7565b908152602001604051809103902060000160009054906101000a900473ffffffffffffffffffffffffffffffffffffffff1673ffffffffffffffffffffffffffffffffffffffff16146104a6576040517f08c379a000000000000000000000000000000000000000000000000000000000815260040161049d90610eca565b60405180910390fd5b600180836040516104b79190610aa7565b908152602001604051809103902060008373ffffffffffffffffffffffffffffffffffffffff1673ffffffffffffffffffffffffffffffffffffffff16815260200190815260200160002060006101000a81548160ff0219169083151502179055505050565b6000818051602081018201805184825260208301602085012081835280955050505050506000915090508060000160009054906101000a900473ffffffffffffffffffffffffffffffffffffffff169080600101805461057c90610bc5565b80601f01602080910402602001604051908101604052809291908181526020018280546105a890610bc5565b80156105f55780601f106105ca576101008083540402835291602001916105f5565b820191906000526020600020905b8154815290600101906020018083116105d857829003601f168201915b50505050509080600201805461060a90610bc5565b80601f016020809104026020016040519081016040528092919081815260200182805461063690610bc5565b80156106835780601f1061065857610100808354040283529160200191610683565b820191906000526020600020905b81548152906001019060200180831161066657829003601f168201915b5050505050905083565b6000604051905090565b600080fd5b600080fd5b600080fd5b600080fd5b6000601f19601f8301169050919050565b7f4e487b7100000000000000000000000000000000000000000000000000000000600052604160045260246000fd5b6106f4826106ab565b810181811067ffffffffffffffff82111715610713576107126106bc565b5b80604052505050565b600061072661068d565b905061073282826106eb565b919050565b600067ffffffffffffffff821115610752576107516106bc565b5b61075b826106ab565b9050602081019050919050565b82818337600083830152505050565b600061078a61078584610737565b61071c565b9050828152602081018484840111156107a6576107a56106a6565b5b6107b1848285610768565b509392505050565b600082601f8301126107ce576107cd6106a1565b5b81356107de848260208601610777565b91505092915050565b600073ffffffffffffffffffffffffffffffffffffffff82169050919050565b6000610812826107e7565b9050919050565b61082281610807565b811461082d57600080fd5b50565b60008135905061083f81610819565b92915050565b6000806040838503121561085c5761085b610697565b5b600083013567ffffffffffffffff81111561087a5761087961069c565b5b610886858286016107b9565b925050602061089785828601610830565b9150509250929050565b60008115159050919050565b6108b6816108a1565b82525050565b60006020820190506108d160008301846108ad565b92915050565b600080604083850312156108ee576108ed610697565b5b600083013567ffffffffffffffff81111561090c5761090b61069c565b5b610918858286016107b9565b925050602083013567ffffffffffffffff8111156109395761093861069c565b5b610945858286016107b9565b9150509250929050565b60006020828403121561096557610964610697565b5b600082013567ffffffffffffffff8111156109835761098261069c565b5b61098f848285016107b9565b91505092915050565b6109a181610807565b82525050565b600081519050919050565b600082825260208201905092915050565b60005b838110156109e15780820151818401526020810190506109c6565b60008484015250505050565b60006109f8826109a7565b610a0281856109b2565b9350610a128185602086016109c3565b610a1b816106ab565b840191505092915050565b6000606082019050610a3b6000830186610998565b8181036020830152610a4d81856109ed565b90508181036040830152610a6181846109ed565b9050949350505050565b600081905092915050565b6000610a81826109a7565b610a8b8185610a6b565b9350610a9b8185602086016109c3565b80840191505092915050565b6000610ab38284610a76565b915081905092915050565b7f4f6e6c79206f776e65722063616e207265766f6b652072696768747300000000600082015250565b6000610af4601c836109b2565b9150610aff82610abe565b602082019050919050565b60006020820190508181036000830152610b2381610ae7565b9050919050565b7f576f726b20616c72656164792072656769737465726564000000000000000000600082015250565b6000610b606017836109b2565b9150610b6b82610b2a565b602082019050919050565b60006020820190508181036000830152610b8f81610b53565b9050919050565b7f4e487b7100000000000000000000000000000000000000000000000000000000600052602260045260246000fd5b60006002820490506001821680610bdd57607f821691505b602082108103610bf057610bef610b96565b5b50919050565b60008190508160005260206000209050919050565b60006020601f8301049050919050565b600082821b905092915050565b600060088302610c587fffffffffffffffffffffffffffffffffffffffffffffffffffffffffffffffff82610c1b565b610c628683610c1b565b95508019841693508086168417925050509392505050565b6000819050919050565b6000819050919050565b6000610ca9610ca4610c9f84610c7a565b610c84565b610c7a565b9050919050565b6000819050919050565b610cc383610c8e565b610cd7610ccf82610cb0565b848454610c28565b825550505050565b600090565b610cec610cdf565b610cf7818484610cba565b505050565b5b81811015610d1b57610d10600082610ce4565b600181019050610cfd565b5050565b601f821115610d6057610d3181610bf6565b610d3a84610c0b565b81016020851015610d49578190505b610d5d610d5585610c0b565b830182610cfc565b50505b505050565b600082821c905092915050565b6000610d8360001984600802610d65565b1980831691505092915050565b6000610d9c8383610d72565b9150826002028217905092915050565b610db5826109a7565b67ffffffffffffffff811115610dce57610dcd6106bc565b5b610dd88254610bc5565b610de3828285610d1f565b600060209050601f831160018114610e165760008415610e04578287015190505b610e0e8582610d90565b865550610e76565b601f198416610e2486610bf6565b60005b82811015610e4c57848901518255600182019150602085019450602081019050610e27565b86831015610e695784890151610e65601f891682610d72565b8355505b6001600288020188555050505b505050505050565b7f4f6e6c79206f776e65722063616e206772616e74207269676874730000000000600082015250565b6000610eb4601b836109b2565b9150610ebf82610e7e565b602082019050919050565b60006020820190508181036000830152610ee381610ea7565b905091905056fea264697066735822122074f4ad290d7ec0215978f145a5e87ffd645a09d9683efc90f5a88cc2a86e597e64736f6c63430008120033",
  "immutableReferences": {},
  "source": "// SPDX-License-Identifier: MIT\npragma solidity ^0.8.0;\n\ncontract CopyrightRegistry {\n    struct Work {\n        address owner;\n        string title;\n        string description;\n    }\n\n    mapping(string => Work) public works;\n    mapping(string => mapping(address => bool)) public rights;\n\n    function registerWork(string memory _title, string memory _description) public {\n        require(works[_title].owner == address(0), \"Work already registered\");\n        works[_title] = Work(msg.sender, _title, _description);\n    }\n\n    function grantRights(string memory _title, address _user) public {\n        require(works[_title].owner == msg.sender, \"Only owner can grant rights\");\n        rights[_title][_user] = true;\n    }\n\n    function revokeRights(string memory _title, address _user) public {\n        require(works[_title].owner == msg.sender, \"Only owner can revoke rights\");\n        rights[_title][_user] = false;\n    }\n}\n",
  "sourcePath": "C:\\Users\\Randrianarisona\\Documents\\master_archi_logicielle\\calculs_decentralise\\BlockChain\\aaron-randrianarisona_tp-petshop\\BlockChain_DApp_copyright\\contracts\\CopyrightRegistry.sol",
  "compiler": {
    "name": "solc",
    "version": "0.8.18+commit.87f61d96.Emscripten.clang"
  },
  "schemaVersion": "3.4.16",
  "updatedAt": "2024-04-27T12:56:07.457Z",
  "devdoc": {
    "kind": "dev",
    "methods": {},
    "version": 1
  },
  "userdoc": {
    "kind": "user",
    "methods": {},
    "version": 1
  }
}